:020000040000fa
:080000000002040000000000f2
:020000040000fa
:1000080090020000900200009002000090020000a0
:100018009002000090020000900200009002000090
:100028009002000090020000900200009002000080
:10003800501300009002000090020000900200009f
:100048009002000090020000900200009002000060
:1000580090020000900200009a1300009002000035
:100068009002000090020000900200009002000040
:100078009002000090020000900200009002000030
:100088009002000090020000900200009002000020
:100098009002000090020000900200009002000010
:1000a8009002000090020000900200009002000000
:1000b80090020000900200009002000090020000f0
:1000c80090020000900200009002000090020000e0
:1000d80090020000900200009002000090020000d0
:1000e80090020000900200009002000090020000c0
:1000f80090020000900200009002000090020000b0
:10010800900200009002000090020000900200009f
:10011800900200009002000090020000900200008f
:10012800900200009002000090020000900200007f
:10013800900200009002000090020000900200006f
:10014800900200009002000090020000900200005f
:10015800900200009002000090020000900200004f
:10016800900200009002000090020000900200003f
:10017800900200009002000090020000900200002f
:10018800900200009002000090020000900200001f
:10019800900200009002000090020000900200000f
:1001a80090020000900200009002000090020000ff
:1001b80090020000900200009002000090020000ef
:1001c80090020000900200009002000090020000df
:1001d80090020000900200009002000090020000cf
:1001e80090020000900200009002000090020000bf
:0801f8009002000090020000db
:020000040000fa
:10020800900200009002000090020000900200009e
:10021800900200009002000090020000900200008e
:10022800900200009002000090020000900200007e
:10023800501300009002000090020000900200009d
:10024800900200009002000090020000900200005e
:1002580090020000900200009a1300009002000033
:10026800900200009002000090020000900200003e
:10027800900200009002000090020000900200002e
:10028800900200009002000090020000900200001e
:10029800900200009002000090020000900200000e
:1002a80090020000900200009002000090020000fe
:1002b80090020000900200009002000090020000ee
:1002c80090020000900200009002000090020000de
:1002d80090020000900200009002000090020000ce
:1002e80090020000900200009002000090020000be
:1002f80090020000900200009002000090020000ae
:10030800900200009002000090020000900200009d
:10031800900200009002000090020000900200008d
:10032800900200009002000090020000900200007d
:10033800900200009002000090020000900200006d
:10034800900200009002000090020000900200005d
:10035800900200009002000090020000900200004d
:10036800900200009002000090020000900200003d
:10037800900200009002000090020000900200002d
:10038800900200009002000090020000900200001d
:10039800900200009002000090020000900200000d
:1003a80090020000900200009002000090020000fd
:1003b80090020000900200009002000090020000ed
:1003c80090020000900200009002000090020000dd
:1003d80090020000900200009002000090020000cd
:1003e80090020000900200009002000090020000bd
:0803f8009002000090020000d9
:020000040000fa
:10040000af4021000eff23000e0188000000000015
:100410000c00070000682100010020001100070007
:10042000000020000000e000020032000000020096
:100430000000000084170200000000000040da0005
:100440000000fe004440a900000020000000e00081
:100450000300320000002000a00188004440a800f2
:100460000000060091018800800078000000eb0089
:1004700015003700e280400032a0b4009101ba00bc
:10048000e280400032a0b4009102ba00e280400055
:1004900032a0b4000002eb00472bde00f507b200eb
:1004a000602ce10004003a000059eb008301e900f0
:1004b000fdff3e00040037006128e100010032002a
:1004c0000082eb00040007001101ba000200e00006
:1004d000e8ff3a00000006003159ba008301e90044
:1004e0000c0032002159ba008301e90008003200f3
:1004f0000400e00003003a00e280400032a0b400b3
:10050000f5ff370011d9ba008301e900faff3a007c
:100510008100e800e180400032a0b4000000060045
:100520000040da000000fe000001be00730007007a
:100530000470a70003f0a1006509b10016003200a5
:100540000d0035006828e10006003500f0ff2f009f
:10055000f1ff27000300e00013003b00010028002a
:100560000000050000004000818048008502e9008d
:10057000fcff3a0008003700f88f420002003c0000
:100580008000eb00000005008100d1000080d30056
:100590008502e800fcff3a000300e00002003b0097
:1005a00060001000e080180000000600881f78003e
:1005b000010478000100e00005003d00600010002b
:1005c000e080180002003b0001f02c00030037001f
:1005d0000400070008f0a70001f0a0004f04780015
:1005e00000000600889fbe008a9fbe0001057800bb
:1005f0000000e000180032000004be006011b800e6
:100600006b0920000982cf00020039000882cf0068
:100610000441b000694252000e00320008003b0065
:1006200082817100610164008904d1000884d300d3
:100630008b05e8000442e800f9ff3a0005003700a6
:100640000804440089844c008b05e9000442e90059
:10065000fbff3a00030007004f05be004f04be0039
:100660000000060081002000618055000b003d0065
:100670000b00200061fe2f000100e1001d0034008e
:1006800082817100610164008904d1000884d30073
:100690000000e800faff3a007100200061006400e9
:1006a0000300700002006000090032006104440091
:1006b000e0844c000988a500050032008b05e800a5
:1006c0006808e10002003a008904d1000884d300e0
:1006d000f20f20000258e10005003d00c75ddd007b
:1006e000f907b20089807500080078000000060054
:1006f0000bf827008b00780000000500c70ade0019
:10070000f107b200f50fb20008003200e1cf42005d
:10071000020032000170a00024000500810f70006b
:10072000010032000408050044000500810f70003c
:1007300002003a00140005008502e90000004000b4
:1007400081c04800fcff3b000170a00024000500b0
:10075000889fbe008a9fbe008c1f78000004be00e8
:10076000e6ff07000478a30026003a006120e100bc
:100770002500320009f8a30025003a006420e100ba
:1007800021003200f507b1000508a3000200320085
:1007900000004000818048006044b8000310200041
:1007a000020020000000400081804800080544004d
:1007b00089854c000a0541008b8549000a055000d7
:1007c0008b855800030033000a00be000204740049
:1007d000838474008301d1000281d300830f7100f0
:1007e000f0ff3a008904d1000884d3006001490079
:1007f00082017800c1adde00fb07b00099ff070061
:10080000110037000960a0000800be000e0037008c
:100810001202200042a08800f0ff2f00f1ff270005
:10082000090037000200be006450e10005003600f8
:100830006420e100020036000968a30001003a00cc
:100840000800be000160a0004f0678004f05be0002
:100850004f04be0000000600f0ff2f00f1ff27004c
:04086000f9ff370065
:020000040000fa
:100864000200fa00000f78001e007800f1ff270054
:10087400010878001e0078008000eb001100980049
:100884009e0078006480400021a8250001087800bb
:100894009e00780064804000e1572a00110098000f
:1008a4009e007800688040008000eb00010878001a
:1008b4009e00780068804000010028001100980024
:1008c4009e0078006c804000e1572a0001087800ff
:1008d4009e0078006c804000e1572a0011009800c7
:1008e4000080fa00000006000200fa00000f780001
:1008f4001e007800f1ff2700010878001e00780030
:100904008000eb00110098009e0078006480400095
:1009140061ff2700010878009e0078006480400091
:10092400c1cd2f00110098009e007800688040001f
:1009340091fd2700010878009e007800688040003f
:10094400819b2f00110098009e0078006c8040006d
:1009540071fa2700010878009e0078006c8040003e
:1009640051692f00110098009e00780070804000ab
:1009740021f62700010878009e007800708040006e
:1009840041372f00110098009e00780074804000c9
:10099400a1f02700010878009e00780074804000d0
:1009a40051052f00110098009e00780078804000c7
:1009b400d1e92700010878009e0078007880400083
:1009c40081d32e00110098009e0078007c804000a6
:1009d400e1e12700010878009e0078007c80400057
:1009e400e1a12e0011009800010220001e804000a9
:1009f400a1d8270001087800010220001e804000d1
:100a040071702e0011009800410220001e804000e9
:100a140041ce270001087800410220001e804000da
:100a2400413f2e0011009800810220001e804000ea
:100a3400a1c2270001087800810220001e80400026
:100a4400610e2e0011009800c10220001e8040009b
:100a5400d1b5270001087800c10220001e804000a3
:100a6400c1dd2d0011009800010320001e8040000c
:100a7400d1a7270001087800010320001e80400050
:100a840081ad2d0011009800410320001e8040001c
:100a9400a198270001087800410320001e8040002f
:100aa400917d2d0011009800810320001e804000dc
:100ab4004188270001087800810320001e8040003f
:100ac400114e2d0011009800c10320001e8040002b
:100ad400c176270001087800c10320001e80400071
:100ae400f11e2d0011009800010420001e8040001a
:100af4002164270001087800010420001e804000c2
:100b040041f02c0011009800410420001e80400098
:100b14005150270001087800410420001e80400045
:100b240011c22c0011009800810420001e80400096
:100b3400613b270001087800810420001e804000ea
:100b440061942c0011009800c10420001e80400014
:100b54005125270001087800c10420001e804000b0
:100b640031672c0011009800010520001e80400010
:100b7400310e270001087800010520001e80400086
:100b8400913a2c0011009800410520001e8040007d
:100b9400f1f5260001087800410520001e80400080
:100ba400910e2c0011009800810520001e80400049
:100bb400a1dc260001087800810520001e80400089
:100bc40021e32b0011009800c10520001e80400085
:100bd40041c2260001087800c10520001e804000a3
:100be40051b82b0011009800010620001e8040001f
:100bf400e1a6260001087800010620001e804000be
:100c0400318e2b0011009800410620001e80400008
:100c1400718a260001087800410620001e804000e9
:100c2400c1642b0011009800810620001e80400042
:100c3400f16c260001087800810620001e80400027
:100c4400013c2b0011009800c10620001e804000ca
:100c5400814e260001087800c10620001e80400055
:100c640001142b0011009800010720001e80400091
:100c7400212f260001087800010720001e80400073
:100c8400c1ec2a0011009800410720001e8040009a
:100c9400c10e260001087800410720001e80400094
:100ca40051c62a0011009800810720001e804000d0
:100cb40071ed250001087800810720001e804000a6
:100cc400a1a02a0011009800c10720001e80400046
:100cd40041cb250001087800c10720001e80400098
:100ce400d17b2a0011009800010820001e804000da
:100cf40021a8250001087800010820001e8040007a
:100d0400e1572a0011009800410820001e8040008d
:100d14003184250001087800410820001e8040002d
:100d2400c1342a0011009800810820001e80400070
:100d3400615f250001087800810820001e804000c2
:100d440091122a0011009800c10820001e80400062
:100d5400b139250001087800c10820001e80400038
:100d640041f1290011009800010920001e80400073
:100d74004113250001087800010920001e8040006d
:100d8400e1d0290011009800410920001e80400094
:100d940001ec240001087800410920001e80400075
:100da40081b1290011009800810920001e804000b3
:100db40001c4240001087800810920001e8040003d
:100dc4001193290011009800c10920001e804000e1
:100dd400419b240001087800c10920001e804000c6
:100de4009175290011009800010a20001e8040001e
:100df400d171240001087800010a20001e804000ff
:100e04002159290011009800410a20001e80400049
:100e1400b147240001087800410a20001e804000e8
:100e2400c13d290011009800810a20001e80400065
:100e3400e11c240001087800810a20001e80400083
:100e44006123290011009800c10a20001e8040007f
:100e540071f1230001087800c10a20001e804000bf
:100e6400110a290011009800010b20001e80400087
:100e740071c5230001087800010b20001e8040008a
:100e8400d1f1280011009800410b20001e80400081
:100e9400d198230001087800410b20001e804000f7
:100ea400b1da280011009800810b20001e80400058
:100eb400a16b230001087800810b20001e804000f4
:100ec400a1c4280011009800c10b20001e8040001e
:100ed400f13d230001087800c10b20001e80400072
:100ee400b1af280011009800010c20001e804000c2
:100ef400c10f230001087800010c20001e8040006f
:100f0400e19b280011009800410c20001e80400045
:100f140011e1220001087800410c20001e804000ed
:100f24004189280011009800810c20001e80400097
:100f3400f1b1220001087800810c20001e804000dd
:100f4400c177280011009800c10c20001e804000c9
:100f54007182220001087800c10c20001e8040002c
:100f64006167280011009800010d20001e804000d8
:100f74008152220001087800010d20001e804000eb
:100f84003158280011009800410d20001e804000b7
:100f94004122220001087800410d20001e804000fb
:100fa400314a280011009800810d20001e80400065
:100fb400a1f1210001087800810d20001e8040006d
:100fc400613d280011009800c10d20001e804000e2
:100fd400b1c0210001087800c10d20001e8040002e
:100fe400c131280011009800010e20001e8040002d
:100ff400918f210001087800010e20001e8040001e
:101004006127280011009800410e20001e80400036
:10101400215e210001087800410e20001e8040005e
:10102400311e280011009800810e20001e8040000f
:10103400812c210001087800810e20001e804000d0
:101044003116280011009800c10e20001e804000b7
:10105400b1fa200001087800c10e20001e80400073
:10106400710f280011009800010f20001e8040001d
:10107400c1c8200001087800010f20001e80400034
:10108400e109280011009800410f20001e80400053
:10109400b196200001087800410f20001e80400016
:1010a4009105280011009800810f20001e80400047
:1010b4008164200001087800810f20001e80400018
:1010c4008102280011009800c10f20001e804000fa
:1010d4004132200001087800c10f20001e8040002a
:1010e400a100280011009800011020001e8040007b
:1010f4008000eb0001087800011020001e804000f1
:101104000100280011009800411020001e804000ba
:10111400c1cd2f0001087800411020001e8040003e
:10112400a100280011009800811020001e804000ba
:10113400819b2f0001087800811020001e80400050
:101144008102280011009800c11020001e80400078
:1011540051692f0001087800c11020001e80400052
:101164009105280011009800011120001e80400004
:1011740041372f0001087800011120001e80400033
:10118400e109280011009800411120001e80400050
:1011940051052f0001087800411120001e804000f5
:1011a400710f280011009800811120001e8040005a
:1011b40081d32e0001087800811120001e80400098
:1011c4003116280011009800c11120001e80400033
:1011d400e1a12e0001087800c11120001e8040000a
:1011e400311e280011009800011220001e804000ca
:1011f40071702e0001087800011220001e8040004a
:101204006127280011009800411220001e80400030
:10121400513f2e0001087800411220001e8040003a
:10122400c131280011009800811220001e80400066
:10123400610e2e0001087800811220001e804000fb
:10124400613d280011009800c11220001e8040005a
:10125400c1dd2d0001087800c11220001e8040006d
:10126400314a280011009800011320001e8040001c
:1012740081ad2d0001087800011320001e8040007c
:101284003158280011009800411320001e804000ae
:10129400917d2d0001087800411320001e8040003c
:1012a4006167280011009800811320001e8040000f
:1012b400114e2d0001087800811320001e8040008b
:1012c400c177280011009800c11320001e8040003f
:1012d400f11e2d0001087800c11320001e8040007b
:1012e4004189280011009800011420001e8040004c
:1012f40041f02c0001087800011420001e804000f9
:10130400e19b280011009800411420001e80400039
:1013140011c22c0001087800411420001e804000f6
:10132400b1af280011009800811420001e804000f5
:1013340061942c0001087800811420001e80400074
:10134400a1c4280011009800c11420001e80400090
:1013540031672c0001087800c11420001e80400071
:10136400b1da280011009800011520001e80400009
:10137400913a2c0001087800011520001e804000dd
:10138400d1f1280011009800411520001e80400072
:10139400910e2c0001087800411520001e804000a9
:1013a400110a290011009800811520001e804000b8
:1013b40021e32b0001087800811520001e804000e5
:1013c4006123290011009800c11520001e804000ef
:1013d40051b82b0001087800c11520001e80400080
:1013e400c13d290011009800011620001e80400014
:1013f400318e2b0001087800011620001e80400069
:101404003159290011009800411620001e80400027
:10141400c1642b0001087800411620001e804000a2
:10142400a175290011009800811620001e8040003b
:10143400013c2b0001087800811620001e8040002a
:101444001193290011009800c11620001e8040004d
:1014540001142b0001087800c11620001e804000f2
:1014640081b1290011009800011720001e8040005e
:10147400c1ec2a0001087800011720001e804000fa
:10148400e1d0290011009800411720001e8040007f
:1014940051c62a0001087800411720001e80400030
:1014a40041f1290011009800811720001e8040009e
:1014b400a1a02a0001087800811720001e804000a6
:1014c40091122a0011009800c11720001e804000cc
:1014d400d17b2a0001087800c11720001e8040003b
:1014e400c1342a0011009800011820001e80400019
:1014f400e1572a0001087800011820001e804000ee
:10150400e1572a0011009800411820001e80400075
:10151400c1342a0001087800411820001e804000d0
:10152400d17b2a0011009800811820001e80400001
:1015340091122a0001087800811820001e804000c2
:10154400a1a02a0011009800c11820001e804000ac
:1015540041f1290001087800c11820001e804000d4
:1015640051c62a0011009800011920001e80400075
:10157400e1d0290001087800011920001e804000f4
:10158400c1ec2a0011009800411920001e8040007f
:1015940081b1290001087800411920001e80400013
:1015a40001142b0011009800811920001e804000b6
:1015b4001193290001087800811920001e80400041
:1015c400013c2b0011009800c11920001e8040002e
:1015d400a175290001087800c11920001e8040006f
:1015e400c1642b0011009800011a20001e804000e5
:1015f4003159290001087800011a20001e8040009a
:10160400318e2b0011009800411a20001e804000ea
:10161400c13d290001087800411a20001e804000c5
:1016240051b82b0011009800811a20001e80400040
:101634006123290001087800811a20001e804000df
:1016440021e32b0011009800c11a20001e804000e5
:10165400110a290001087800c11a20001e804000e8
:10166400910e2c0011009800011b20001e804000e8
:10167400d1f1280001087800011b20001e804000e1
:10168400913a2c0011009800411b20001e8040005c
:10169400b1da280001087800411b20001e804000b8
:1016a40031672c0011009800811b20001e8040002f
:1016b400a1c4280001087800811b20001e8040007e
:1016c40061942c0011009800c11b20001e80400072
:1016d400b1af280001087800c11b20001e80400023
:1016e40011c22c0011009800011c20001e80400033
:1016f400f19b280001087800011c20001e80400096
:1017040041f02c0011009800411c20001e80400074
:101714004189280001087800411c20001e804000f7
:10172400f11e2d0011009800811c20001e80400035
:10173400c177280001087800811c20001e80400029
:10174400114e2d0011009800c11c20001e80400085
:101754006167280001087800c11c20001e80400039
:10176400917d2d0011009800011d20001e80400075
:101774003158280001087800011d20001e80400017
:1017840081ad2d0011009800411d20001e804000f5
:10179400314a280001087800411d20001e804000c5
:1017a400c1dd2d0011009800811d20001e80400025
:1017b400613d280001087800811d20001e80400042
:1017c400610e2e0011009800c11d20001e804000f3
:1017d400c131280001087800c11d20001e8040008e
:1017e400513f2e0011009800011e20001e80400071
:1017f4006127280001087800011e20001e80400097
:1018040071702e0011009800411e20001e804000bf
:10181400311e280001087800411e20001e8040006f
:10182400e1a12e0011009800811e20001e804000be
:101834003116280001087800811e20001e80400017
:1018440081d32e0011009800c11e20001e8040008c
:10185400710f280001087800c11e20001e8040007e
:1018640051052f0011009800011f20001e80400028
:10187400e109280001087800011f20001e804000b3
:1018840041372f0011009800411f20001e804000a6
:101894009105280001087800411f20001e804000a7
:1018a40051692f0011009800811f20001e80400004
:1018b4008102280001087800811f20001e8040005a
:1018c400819b2f0011009800c11f20001e80400042
:1018d400a100280001087800c11f20001e804000dc
:1018e400c1cd2f00110098000080fa00000006000e
:1018f4000200fa00000f78001e007800f1ff2700b4
:10190400010878001e80e80061ff270001087800c4
:101914009e0078006480400091fd27000108780053
:101924009e0078006680400071fa27000108780064
:101934009e0078006880400021f6270001087800a6
:101944009e0078006a804000a1f02700010878001a
:101954009e0078006c804000d1e9270001087800df
:101964009e0078006e804000e1e1270001087800c5
:101974009e00780070804000a1d8270001087800fc
:101984009e0078007280400041ce27000108780054
:101994009e00780074804000a1c2270001087800ee
:1019a4009e00780076804000d1b5270001087800b9
:1019b4009e00780078804000d1a7270001087800b5
:1019c4009e0078007a804000a198270001087800e2
:1019d4009e0078007c804000418827000108780040
:1019e4009e0078007e804000c176270001087800c0
:1019f400010220001e8040002164270001087800b5
:101a0400210220001e804000515027000108780068
:101a1400410220001e804000613b2700010878003d
:101a2400610220001e804000512527000108780033
:101a3400810220001e804000310e2700010878003a
:101a4400a10220001e804000f1f526000108780064
:101a5400c10220001e804000a1dc2600010878009d
:101a6400e10220001e80400041c2260001087800e7
:101a7400010320001e804000e1a626000108780032
:101a8400210320001e804000718a2600010878008e
:101a9400410320001e804000f16c260001087800fc
:101aa400610320001e804000814e2600010878005a
:101ab400810320001e804000212f260001087800a9
:101ac400a10320001e804000c10e260001087800fa
:101ad400c10320001e80400071ed2500010878003c
:101ae400e10320001e80400041cb2500010878005e
:101af400010420001e80400021a825000108780070
:101b0400210420001e804000318425000108780053
:101b1400410420001e804000615f25000108780018
:101b2400610420001e804000b139250001087800be
:101b3400810420001e804000411325000108780024
:101b4400a10420001e80400001ec2400010878005c
:101b5400c10420001e80400001c424000108780054
:101b6400e10420001e804000419b2400010878000d
:101b7400010520001e804000d17124000108780076
:101b8400210520001e804000b14724000108780090
:101b9400410520001e804000e11c2400010878005b
:101ba400610520001e80400071f1230001087800c7
:101bb400810520001e80400071c5230001087800c3
:101bc400a10520001e804000d19823000108780060
:101bd400c10520001e804000a16b2300010878008d
:101be400e10520001e804000f13d2300010878003b
:101bf400010620001e804000c10f23000108780068
:101c0400210620001e80400011e122000108780016
:101c1400410620001e804000f1b122000108780036
:101c2400610620001e8040007182220001087800b5
:101c3400810620001e8040008152220001087800a5
:101c4400a10620001e8040004122220001087800e5
:101c5400c10620001e804000a1f121000108780087
:101c6400e10620001e804000b1c021000108780078
:101c7400010720001e804000918f21000108780098
:101c8400210720001e804000215e21000108780009
:101c9400410720001e804000812c210001087800ab
:101ca400610720001e804000b1fa2000010878007e
:101cb400810720001e804000c1c820000108780070
:101cc400a10720001e804000b19620000108780082
:101cd400c10720001e8040008164200001087800b4
:101ce400e10720001e8040004132200001087800f6
:101cf400010820001e8040008000eb0001087800ed
:101d0400210820001e804000c1cd2f00010878006a
:101d1400410820001e804000819b2f0001087800ac
:101d2400610820001e80400051692f0001087800de
:101d3400810820001e80400041372f0001087800f0
:101d4400a10820001e80400051052f0001087800e2
:101d5400c10820001e80400081d32e0001087800b5
:101d6400e10820001e804000e1a12e000108780057
:101d7400010920001e80400071702e0001087800c7
:101d8400210920001e804000513f2e0001087800e8
:101d9400410920001e804000610e2e0001087800d9
:101da400610920001e804000c1dd2d00010878007b
:101db400810920001e80400081ad2d0001087800bb
:101dc400a10920001e804000917d2d0001087800ab
:101dd400c10920001e804000114e2d00010878002a
:101de400e10920001e804000f11e2d00010878004a
:101df400010a20001e80400041f02c0001087800f8
:101e0400210a20001e80400011c22c000108780025
:101e1400410a20001e80400061942c0001087800d3
:101e2400610a20001e80400031672c000108780000
:101e3400810a20001e804000913a2c00010878009d
:101e4400a10a20001e804000910e2c000108780099
:101e5400c10a20001e80400021e32b000108780005
:101e6400e10a20001e80400051b82b0001087800d0
:101e7400010b20001e804000318e2b0001087800e9
:101e8400210b20001e804000c1642b000108780053
:101e9400410b20001e804000013c2b00010878000b
:101ea400610b20001e80400001142b000108780003
:101eb400810b20001e804000c1ec2a00010878003c
:101ec400a10b20001e80400051c62a0001087800a2
:101ed400c10b20001e804000a1a02a000108780048
:101ee400e10b20001e804000d17b2a00010878000d
:101ef400010c20001e804000e1572a0001087800f0
:101f0400210c20001e804000c1342a000108780002
:101f1400410c20001e80400091122a000108780024
:101f2400610c20001e80400041f129000108780066
:101f3400810c20001e804000e1d0290001087800b7
:101f4400a10c20001e80400081b129000108780006
:101f5400c10c20001e804000119329000108780064
:101f6400e10c20001e804000a175290001087800c2
:101f7400010d20001e80400031592900010878001d
:101f8400210d20001e804000c13d29000108780079
:101f9400410d20001e8040006123290001087800c3
:101fa400610d20001e804000110a290001087800fc
:101fb400810d20001e804000d1f128000108780026
:101fc400a10d20001e804000b1da2800010878002d
:101fd400c10d20001e804000a1c428000108780023
:101fe400e10d20001e804000b1af280001087800f8
:101ff400010e20001e804000f19b2800010878009b
:10200400210e20001e80400041892800010878002c
:10201400410e20001e804000c1772800010878008e
:10202400610e20001e8040006167280001087800ce
:10203400810e20001e8040003158280001087800dd
:10204400a10e20001e804000314a280001087800bb
:10205400c10e20001e804000613d28000108780068
:10206400e10e20001e804000c131280001087800e4
:10207400010f20001e80400061272800010878001d
:10208400210f20001e804000311e28000108780026
:10209400410f20001e8040003116280001087800fe
:1020a400610f20001e804000710f28000108780095
:1020b400810f20001e804000e109280001087800fb
:1020c400a10f20001e80400091052800010878001f
:1020d400c10f20001e804000810228000108780002
:1020e400e10f20001e804000a100280001087800b4
:1020f4000080fa00000006000000fa0000a0800042
:10210400e10f500005003a00021020000160240095
:10211400002024006b030700040037000210200095
:102124000140240000002400660307000000eb00c7
:102134000080fa00000006000000fa0000a0800001
:10214400e10f500005003a00021020000160240055
:10215400002024008a020700040037000210200037
:102164000140240000002400850207000000eb0069
:102174000080fa00000006000000fa0000a08000c1
:10218400e10f500005003a00021020000160240015
:1021940000202400d30107000400370002102000af
:1021a4000140240000002400ce0107000000eb00e1
:1021b4000080fa00000006000000fa0000a0800081
:1021c400e10f500005003a000210200001602400d5
:1021d400002024003402070004003700021020000d
:1021e40001402400000024002f0207000000eb003f
:1021f4000080fa00000006000000fa000000eb0076
:102204000080fa00000006000000fa000000eb0065
:102214000080fa00000006000000fa000000eb0055
:102224000080fa00000006000200fa0030a08000de
:10223400e00f50000400320000e0200088f907009d
:102244000000eb0030a08800f0ff270000308a0077
:10225400f0ff270010308a00f0ff270020308a00aa
:10226400f0ff270030308a000000eb0040308a0085
:102274000000eb0050308a000000eb0060308a0060
:102284000000eb0070308a000300210002e020000f
:1022940031002000006024002901070070002000a4
:1022a400000f7800260037001e0078004200dd0091
:1022b4008080e80000002100008040009000780049
:1022c4001e0078004200dd000081e80000002100cb
:1022d40000004100100078000088b9000001780077
:1022e4001e007800c200dd000000210000804000d4
:1022f400900078001e007800c201dd00000021007b
:1023040000804100100078000088b90000007800c7
:1023140000004100cf80de00a3f807000bf907009e
:1023240080f80700800078001e007800000140005b
:102334000020240000004100010878001e0fe9007d
:102344001e007800e00f5000d7ff3d000000eb00b6
:102354000080fa00000006000200fa0020a08000bd
:10236400e00f500004003200008020005ef90700f6
:102374000000eb0020a0880000a08000e10f5000c6
:1023840032003a0003a020000280200081002000d7
:1023940000602400ea000700f00f2000000f78001e
:1023a400260037001e0078004200dd008080e8002f
:1023b40000a0200000804000900078001e007800fb
:1023c4004200dd000081e80000a020000000410080
:1023d400100078000088b900000178001e00780021
:1023e400c200dd0000a020000080400090007800c2
:1023f4001e007800c201dd0000a020000080410022
:10240400100078000088b900000078000000410046
:10241400cf80de0064f80700ccf8070041f807001d
:10242400800078001e007800000140000020240095
:1024340000004100010878001e0fe9001e0078002a
:10244400e00f5000d7ff3d003100370003a020000b
:10245400028020008100200000402400b800070012
:10246400f00f2000000f7800260037001e007800cf
:102474004200dd008080e80000a0200000804000d1
:10248400900078001e0078004200dd000081e80022
:1024940000a0200000004100100078000088b9006e
:1024a400000178001e007800c200dd0000a02000ba
:1024b40000804000900078001e007800c201dd001a
:1024c40000a0200000804100100078000088b900be
:1024d4000000780000004100cf80de0032f80700e1
:1024e4009af807000ff80700800078001e007800b3
:1024f40000014000000024000000410001087800b1
:102504001e0fe9001e007800e00f5000d7ff3d00c9
:102514000000eb000080fa00000006000000fa0052
:10252400011980000030200000807000001988002c
:1025340001198000f0f12f00808060000004200069
:1025440000807000001988002043a8002143a800df
:1025540011198000f0cf2f0000806000101988004e
:1025640025e3a90030c0b30024e3b7002183a80009
:102574001119800030fc2f000080600010198800c1
:102584004119800000fe2f0000806000401988007f
:1025940028e3a9000080eb00601988002c03a9003f
:1025a40085a0a90095a0a90021e3a8000080fa0055
:1025b400000006000000fa004ba7a900513a800071
:1025c400f07f2e0000806000503a88004ae7a9009e
:1025d400513a80000070200000807000503a88005a
:1025e400f3e3a800f343a800f183a900811f80004e
:1025f40000f82f0000806000d000b300801f880026
:10260400f103a800f1e3a8000080fa00000006002e
:102614000000fa000000eb0050088800f0372000aa
:10262400700888008500a9009500a90013e1a8009e
:102634000080fa00000006000000fa00011c80007f
:10264400f0fc2f0000806000001c8800011c80004a
:10265400c0ff2f00008060000010a000001c880054
:1026640000302000401c8800f00f2000501c88001f
:10267400d0002000101c880000602000201c88006e
:1026840000402000301c88008480a9009480a800a9
:1026940081e3a8000080fa0000000600801f780093
:1026a4000000fa0000a080000000a20000a0880042
:1026b4001000200010a088008480a9000080fa0087
:1026c4004f007800004006000000fa00611c800002
:1026d400f0fc2f0000806000601c8800611c8000fa
:1026e400c0ff2f00008060000010a000601c880064
:1026f4008da3a800803f2000a01c8800f00f2000bc
:10270400b01c8800f0042000701c88000020200009
:10271400801c880000002000901c880085c0a9004f
:1027240095c0a8008de3a8000080fa000000060010
:102734000000fa0085c0a9000080fa0000400600ed
:102744002400f8002200f8002a00f8002800f8000d
:102754004400f80001047800170020008138dd00ef
:102764008100e900801f7800831f780004002000a6
:1027740001800800050000000000000090097800b6
:102784008381e800840978008381e8000080e80000
:10279400cf0178004f0078008100e800010020009c
:1027a4000804e90008800800470000000000000059
:1027b400831f780015002000ca0180000a83e80006
:1027c400062add00018008003a0000000000000035
:1027d400821f78008a2add008502e900058008004e
:1027e4002f000000000000009302780063037a00c9
:1027f400868342008381e8009302780063037a00b1
:10280400868442008381e9001201c30093027800a8
:1028140063037a0086825200320378001201c400f6
:102824008381e8009302780063037a0085025300f1
:102834008381e900120378001201c4001281c300ed
:102844009302780063037a008682520022037800a0
:102854001281c4008381e8009302780063037a0044
:10286400868252008381e900120378001281c40039
:102874008719780089117800848141003300cc00e5
:102884002380cc00848151008381e8008381e800a7
:102894000a0354000683e80015002000862add00a0
:1028a40005014100c50180000600200006a8e700dc
:1028b400848141004f0178008100e800c108dd00f7
:1028c4008100e900cf017800000000004400f90015
:1028d4002800f9002a00f9002200f9002400f90078
:1028e400000006002400f8002200f8002a00f80086
:1028f4002800f8004400f8000201e900f6ff230074
:1029040005002800068572000a8552000500200093
:102914001281c3000680ca00028008002300000060
:1029240000000000b1037800070278001201c30020
:102934000700ca000030cb0043a0ae0001003700fe
:10294400100037000b00cc00858545004260af00c5
:1029540001003700100037001201c3000700ca004d
:102964000000cb0043a0af00100037000b00cc00e8
:10297400858545004260ae000c0037008a0378006c
:102984000a0037004340a900868443004260ae0039
:10299400060037008a0378001201c300860378001a
:1029a400848542004260af008a03780007187800eb
:1029b4004400f9002800f9002a00f9002200f90077
:1029c4002400f900000006002400f8002200f800aa
:1029d4002a00f8002800f8004400f8000201e90089
:1029e400020442006244b8000a0020000280080089
:1029f400260000000000000091317c00b103780043
:102a0400d60d20001201c3001201c4000400cc0042
:102a1400d90d200009024200850478006222b80022
:102a24008902780008024200eb7f22000b20e600b6
:102a3400020037000b025200fcff370063027a00e9
:102a4400f6ff27001281c3001381c1000480cc006b
:102a5400870342000884e900e6ff270006d0e70068
:102a640001003700050037008582e800e6ff2700f3
:102a74000628e700eaff2700040037008582e90002
:102a8400060020000628e7000a0020000718780046
:102a94004400f9002800f9002a00f9002200f90096
:102aa4002400f900000006002400f8002200f800c9
:102ab4002a00f8002800f8004400f8000201e900a8
:102ac400fbff2700540a20000280080025000000b4
:102ad400000000001201c300b10378008b81630081
:102ae40083815500030378001301c1000600cc0064
:102af4001201c3001201c3000400ca000380ca000b
:102b04000000cb000a00cc001201c3000600ca007a
:102b14000380ca000000cb000800cc0080017800cc
:102b2400810478000a0254004220ae0001003700fc
:102b340061045400110009000a40d9000003780020
:102b44000300780089007800040020008703420015
:102b54004260ae00030037000500280006857200bd
:102b64000a835200061878004400f9002800f9008e
:102b74002a00f9002200f9002400f90000000600f0
:102b84002400f8002200f8002a00f8002800f800c9
:102b94004400f8000201e90006f0200005002000ce
:102ba4001281c3000680ca00028008001f000000d2
:102bb40000000000b10378001201c3000700ca003e
:102bc4000030cb0043a0ae000100370012003700f4
:102bd4000b00cc00858545004260ae001300370031
:102be4001201c3000700ca000000cb0043a0ae00de
:102bf400030037004340a900850378000b00370029
:102c04000b00cc00858545004260af00070037000b
:102c140085037800050037004340a90086844300fb
:102c24004260af0001003700850378000718780080
:102c34004400f9002800f9002a00f9002200f900f4
:102c44002400f900000006002400f8002200f80027
:102c54002a00f8002800f8004400f8000201e90006
:102c640002044200c6022000d90d20001b012000ee
:102c74000c00200002800800190000000000000081
:102c84006245b80091317d00b103780015027800e7
:102c94001201c3001301c1000400cc000902420068
:102ca4000802420085067800fc9f200004055600b7
:102cb4004260af000c0252006222b80063057a0041
:102cc4008a8343008b05e9000cd8e7000200370033
:102cd4001b0120008582e8008d0278000804e900c9
:102ce400071878004400f9002800f9002a00f900c8
:0c2cf4002200f9002400f9000000060096
:020000040000fa
:102d00000046000000020000000000000044000037
:102d1000000200000000000000420000000200006d
:102d20000000000000400000000200000000000061
:102d30000014000004000000020000000000000079
:102d40000000000004140000040000000200000065
:102d5000010001000000000000080000000c00005d
:102d60000000000008140000020000000000000045
:042d7000000000005f
:020000040000fa
:102d74002400f8002200f8002a00f8002800f800d7
:102d84004400f800140020000400e6000d003700a1
:102d940013002000001add00848140004122de007f
:102da4000482e9008180e800048008000500000036
:102db40000000000910278009308780085097800eb
:102dc4008381e8008180e8004400f9002800f900cc
:102dd4002a00f9002200f9002400f900000006008e
:102de4002600f8002400f8002200f8002c00f80067
:102df4002a00f8002800f8004400f8000201e90065
:102e0400050020000280080002000000000000000d
:102e140031187800051878004400f9002800f900fa
:102e24002a00f9002c00f9002200f9002400f9001e
:102e34002600f900000006002400f8002200f80033
:102e44002a00f8002800f8004400f8000201e90014
:102e540005002000028008000200000000000000bd
:102e6400311878008180e8004400f9002800f90056
:102e74002a00f9002200f9002400f90000000600ed
:102e84002400f8002200f8002a00f8002800f800c6
:102e94004400f8000680280086028800f63f2000df
:102ea4003602880000000000030023004400f900fb
:102eb4002800f9002a00f9002200f9002400f90092
:102ec400000006002400f8002200f8002a00f800a0
:102ed4002800f8004400f8000201e900028008001c
:102ee4000100000000000000311878004400f900df
:102ef4002800f9002a00f9002200f9002400f90052
:102f0400000006000000fa000000eb000080fa0058
:102f1400000006000000fa000080fa00000006002d
:020000040000fa
:0200000401f009
:04000c00f8ff0000f9
:020000040000fa
:0200000401f009
:040010007bff000072
:020000040000fa
:0200000401f009
:040014007fff00006a
:00000001FF
