:020000040000fa
:080000000002040000000000f2
:020000040000fa
:100008009402000094020000940200009402000090
:100018009402000094020000940200009402000080
:100028009402000094020000940200009402000070
:10003800b40500009402000094020000940200003d
:100048009402000094020000940200009402000050
:100058009402000094020000fc05000094020000d5
:100068009402000094020000940200009402000030
:100078009402000094020000940200009402000020
:100088009402000094020000940200009402000010
:100098009402000094020000940200009402000000
:1000a80094020000940200009402000094020000f0
:1000b80094020000940200009402000094020000e0
:1000c80094020000940200009402000094020000d0
:1000d80094020000940200009402000094020000c0
:1000e80094020000940200009402000094020000b0
:1000f80094020000940200009402000094020000a0
:10010800940200009402000094020000940200008f
:10011800940200009402000094020000940200007f
:10012800940200009402000094020000940200006f
:10013800940200009402000094020000940200005f
:10014800940200009402000094020000940200004f
:10015800940200009402000094020000940200003f
:10016800940200009402000094020000940200002f
:10017800940200009402000094020000940200001f
:10018800940200009402000094020000940200000f
:1001980094020000940200009402000094020000ff
:1001a80094020000940200009402000094020000ef
:1001b80094020000940200009402000094020000df
:1001c80094020000940200009402000094020000cf
:1001d80094020000940200009402000094020000bf
:1001e80094020000940200009402000094020000af
:0801f8009402000094020000d3
:020000040000fa
:10020800940200009402000094020000940200008e
:10021800940200009402000094020000940200007e
:10022800940200009402000094020000940200006e
:10023800b40500009402000094020000940200003b
:10024800940200009402000094020000940200004e
:100258009402000094020000fc05000094020000d3
:10026800940200009402000094020000940200002e
:10027800940200009402000094020000940200001e
:10028800940200009402000094020000940200000e
:1002980094020000940200009402000094020000fe
:1002a80094020000940200009402000094020000ee
:1002b80094020000940200009402000094020000de
:1002c80094020000940200009402000094020000ce
:1002d80094020000940200009402000094020000be
:1002e80094020000940200009402000094020000ae
:1002f800940200009402000094020000940200009e
:10030800940200009402000094020000940200008d
:10031800940200009402000094020000940200007d
:10032800940200009402000094020000940200006d
:10033800940200009402000094020000940200005d
:10034800940200009402000094020000940200004d
:10035800940200009402000094020000940200003d
:10036800940200009402000094020000940200002d
:10037800940200009402000094020000940200001d
:10038800940200009402000094020000940200000d
:1003980094020000940200009402000094020000fd
:1003a80094020000940200009402000094020000ed
:1003b80094020000940200009402000094020000dd
:1003c80094020000940200009402000094020000cd
:1003d80094020000940200009402000094020000bd
:1003e80094020000940200009402000094020000ad
:0803f8009402000094020000d1
:020000040000fa
:100400004fc021000eff23000e01880000000000f5
:1004100000012000200288000c00070060ae2000d0
:100420000100200011000700000020000000e00093
:10043000020032000000020000000000040602007a
:10044000000000000040da000000fe004440a90067
:10045000000020000000e000030032000000200047
:10046000a00188004440a800000006009101880017
:10047000800078000000eb0015003700e2804000ab
:1004800032a0b4009101ba00e280400032a0b40072
:100490009102ba00e280400032a0b4000002eb00fa
:1004a000472bde00f507b200602ce10004003a00a3
:1004b0000059eb008301e900fdff3e000400370016
:1004c0006128e100010032000082eb000400070017
:1004d0001101ba000200e000e8ff3a000000060047
:1004e0003159ba008301e9000c0032002159ba00e9
:1004f0008301e900080032000400e00003003a0034
:10050000e280400032a0b400f5ff370011d9ba00f4
:100510008301e900faff3a008100e800e180400031
:1005200032a0b400000006000040da000000fe0027
:10053000889fbe008a9fbe008c1f78009d00070028
:10054000a400330003866c006450e1002e003200ea
:100550006420e100330032006150e1002f003200de
:100560006120e1003100320085855500eb07b000c5
:10057000090020000804200005003700080444009a
:1005800089844c000a0031000603430087834b0036
:100590000001530081815b00f8ff33000203be00bd
:1005a0000800a0000804440089844c00f6ff3900cc
:1005b000c639dd0083017300010032001300200002
:1005c0008904d1000884d3000998a30005003200f3
:1005d0000800a7000300a0008904d1000884d3000c
:1005e0008b05e8008904d1000884d3000001eb00ea
:1005f0000281d2003400070001f0a1000cf0a70036
:1006000001f0a0007c0037006420e1007e00320091
:100610000801be000200be00f7ff37006120e100c4
:10062000790032006000b800f3ff370000002000be
:1006300001f82700f0ff37000001be004800070066
:100640000470a70003f0a1006509b1001600320094
:100650000d0035006828e10006003500f0ff2f008e
:10066000f1ff27000300e00013003b000100280019
:100670000000050000004000818048008502e9007c
:10068000fcff3a0008003700f88f420002003c00ef
:100690008000eb00000005008100d1000080d30045
:1006a0008502e800fcff3a000300e00002003b0086
:1006b00060001000e0801800000006004f89de0096
:1006c000820178008700370081002000618055009a
:1006d0000b003d000b00200061fe2f000100e10037
:1006e0001d00340082817100610164008904d10021
:1006f0000884d3000000e800faff3a0071002000ef
:100700006100640003007000020060000900320014
:1007100061044400e0844c000988a5000500320013
:100720008b05e8006808e10002003a008904d10066
:100730000884d300f20f20000258e10005003d00bc
:10074000c75ddd00f907b2008980750008007800f8
:10075000000006000bf827008b0078000000050061
:10076000c70ade00f107b200f50fb2000800320040
:10077000e1cf4200020032000170a0002400050019
:10078000810f7000010032000408050044000500dc
:10079000810f700002003a00140005008502e90094
:1007a0000000400081c04800fcff3b000170a00039
:1007b000240005000004be00e9ff07000003be009e
:1007c0000405be000200be00e5ff0700844f75006f
:1007d000000006000200be006450e1000500360083
:1007e0006420e100020036000968a30001003a001d
:1007f0000800be000160a0004f0678004f05be0053
:100800004f04be0000000600f0ff2f00f1ff27009c
:10081000f9ff3700889fbe008a9fbe008c1f7800ba
:10082000e4ff0700ebff330003866c006450e10037
:10083000240032006420e100270032006150e10012
:10084000220032006120e100210032008b8542004d
:10085000eb07b1000134b800003ab80008044200c8
:1008600089844a00013ab8000030b800888040000e
:1008700009014a0004003300000040008180480064
:10088000020149008b05e900c909dd008301700000
:100890000100320013002000c814de004814dd00ff
:1008a0004709de001200b200c808de0008847000ac
:1008b00085ff070001f0a1000cf0a70001f0a000e7
:1008c000cdff37006120e100cfff32000801be00fc
:1008d0000200be00f7ff37006150e100fcff3a0064
:1008e000c9ff3700881f7800030478000300e00088
:1008f00007003d0060001000e08018006001190052
:10090000e081190002003b0001f02d0003003700d8
:100910000400070008f0a70001f0a0004f047800d1
:1009200000000600889fbe008a9fbe000082700003
:100930000402710004827100260032000004be002f
:100940000200be006011b8006b0920009502200073
:100950000182cf000a0039000541b1000082cf00ba
:10096000070039000541b1000982cf0004003900b9
:100970000541b1000882cf00010039000541b100f6
:1009800005425200120032000a003b0082817100d1
:10099000610164008100d1000080d3008984d3000c
:1009a0000884d3008b05e8000442e800f7ff3a0012
:1009b000070037000804440089844c000000480008
:1009c000818048008b05e9000442e900f9ff3a0004
:1009d0003dff07004f05be004f04be0000000600ab
:020000040000fa
:1009e0000000fa00041980000480a0000490a00018
:1009f00004198800041980000450a1000460a000bc
:100a00000470a100041988002043a8002143a80015
:100a1000141980000480a1000490a100141988001a
:100a200025e3a90034c0b3000440780024e3b700f4
:100a30002183a800141980000420a1000430a10023
:100a40000440a1000450a100141988004519800039
:100a500004fe2f00048262004419880028e3a900e4
:100a60000082eb00641988002c03a90085a0a9006e
:100a700095a0a90021e3a8000080fa00000006006c
:100a80000000fa004ba7a900543a800004b0a1006e
:100a900004c0a100543a88004ae7a900543a8000f3
:100aa0000480a0000490a00004a0a000543a880094
:100ab000f3e3a800f343a800f183a900851f800099
:100ac00004f82f0004826200d400b300841f880061
:100ad000f103a800f1e3a8000080fa00000006007e
:100ae0000000fa000002eb0054088800f4372000f0
:100af000740888008500a9009500a90013e1a800ea
:100b00000080fa00000006000000fa00041c8000cb
:100b10000440a1000450a100041c8800041c8000b3
:100b20000400a1000410a000041c88000430200070
:100b3000441c8800f40f2000541c8800d4002000be
:100b4000141c880004602000241c8800044020003d
:100b5000341c88008480a9009480a80081e3a80048
:100b60000080fa0000000600841f78000000fa00f0
:100b700004e080000400a20004e0880014002000cb
:100b800014e088008480a9000080fa004f027800f9
:100b9000004006000000fa00641c80000440a10030
:100ba0000450a100641c8800641c80000400a100a3
:100bb0000410a000641c88008da3a800843f2000be
:100bc000a41c8800f40f2000b41c8800f40420004a
:100bd000741c880004202000841c8800040020006d
:100be000941c880085c0a90095c0a8008de3a800ca
:100bf0000080fa00000006000000fa0085c0a9008d
:100c00000080fa00004006000004fa009402200070
:100c1000343a8800243a80000460a1000470a100e6
:100c2000243a8800253a800004fe2f0004826200e6
:100c3000243a88000002eb00443a880044e0a8000f
:100c400044c0a80040a7a900160020008407200087
:100c5000a509200037742000844b7800854b78006c
:100c6000864b7800160020006404200075052000e3
:100c700027742000844b7800854b7800864b7800e1
:100c800000000000153a8000040027008482620002
:100c900004002100848f5200faff3a000000000097
:100ca000153a80000402200004826200e00f520026
:100cb000fbff32004aff070093ff0700b5ff070064
:100cc0006fff070086ff07000100370000000000eb
:100cd00014e08000e00f5200fcff320004e08000ce
:100ce000e10f520011003a000210200001602400c0
:100cf0000e00780096010700042020000e0242003a
:100d0000021020000160240004007800ae010700fa
:100d1000042020000e024200040178008e007800ba
:100d200000202400140007001000370002102000eb
:100d3000014024000e0078008501070004202000f7
:100d40000e0242000210200001402400040078003e
:100d50009d010700042020000e02420004017800db
:100d60008e00780000002400030007000002eb0062
:100d700014e08800d6ff37001a00fa00200f980010
:100d8000310f9800420f98000002eb00040f78002a
:100d90000400200005802300140798002507980010
:100da0001e02780004024200be0a90000482420043
:100db00014027800cfa2de000400be003ffe070050
:100dc0000002be0034079800450798001e02780014
:100dd00004024200ce0a900004824200140278000d
:100de000cfa2de000400be0034fe07000002be00f9
:100df00054079800650798001e019000ae0190000e
:100e00003e009000ce00900082fe07000002be006f
:100e100034079800450798001e019000ae0190002d
:100e20005e009000ee0090007afe07000002be0017
:100e300054079800650798005e019000ee0190004d
:100e40003e009000ce009000b9fd07000002be00f9
:100e500074079800050f98007e0090008e0890009f
:100e6000f5fd07000002be0004027800cfa2de00fc
:100e70000400be0011fe07000002be0002002000b8
:100e8000037024000400be0062fe07000002be00e2
:100e90000400be00e8fd07000002be00140f980029
:100ea0001e02780004024200ae0a90000482420052
:100eb0009e0a9000050a78001e0fe800e40f20004b
:100ec0009e027800848f5200b5ff34000080fa0043
:100ed000000006002400f8002200f8002a00f800b4
:100ee0002800f8004400f8000201e900f65f200045
:100ef00005002800068572000a85520005002000c2
:100f00001281c3000680ca0002800800230000008e
:100f100000000000b1037800070278001201c3004e
:100f20000700ca000030cb0043a0ae00010037002c
:100f3000100037000b00cc00858545004260af00f3
:100f400001003700100037001201c3000700ca007b
:100f50000000cb0043a0af00100037000b00cc0016
:100f6000858545004260ae000c0037008a0378009a
:100f70000a0037004340a900868443004260ae0067
:100f8000060037008a0378001201c3008603780048
:100f9000848542004260af008a0378000718780019
:100fa0004400f9002800f9002a00f9002200f900a5
:100fb0002400f900000006002400f8002200f800d8
:100fc0002a00f8002800f8004400f8000201e900b7
:100fd000fbff270005002800540a200002800800bb
:100fe00027000000000000001201c300b1017800da
:100ff000030378001301c1000600cc001201c300f6
:101000008b836100878352001201c3000400ca0071
:101010000780ca000000cb000a00cc001201c30008
:101020000600ca000380ca000000cb000800cc0004
:10103000880355004260af00010037000a00370006
:101040004220af000a003700800178008104780058
:10105000110009000a40d90000037800030078005d
:1010600089007800060037000600200004003700e1
:1010700006008400068351004220ae00f6ff2700e0
:10108000061878004400f9002800f9002a00f90049
:101090002200f9002400f900000006002400f800f6
:1010a0002200f8002a00f8002800f8004400f800a8
:1010b0000201e900fbff270005002800540a200078
:1010c0000280080023000000000000001201c3009d
:1010d000b101780003f0a6000100370003002000f2
:1010e0008b8351004220af001a00370085835100e6
:1010f0004220af0017003700030378001301c1003e
:101100000600cc001201c3008b836100878352006c
:101110001201c3000400ca000780ca000000cb000f
:101120000a00cc001201c3000600ca000380ca00f6
:101130000000cb000800cc0080017800810478001a
:10114000110009000a40d90000037800030078006c
:1011500089007800061878004400f9002800f9009a
:101160002a00f9002200f9002400f900000006001e
:101170002400f8002200f8002a00f8002800f800f7
:101180004400f8000201e9000600200005002000ec
:101190001281c3000680ca00028008001f00000000
:1011a00000000000b10378001201c3000700ca006c
:1011b0000030cb0043a0ae00010037001200370022
:1011c0000b00cc00858545004260ae00130037005f
:1011d0001201c3000700ca000000cb0043a0ae000c
:1011e000030037004340a900850378000b00370057
:1011f0000b00cc00858545004260af00070037003a
:1012000085037800050037004340a9008684430029
:101210004260af00010037008503780007187800ae
:101220004400f9002800f9002a00f9002200f90022
:101230002400f900000006002400f8002200f80055
:101240002a00f8002800f8004400f8000201e90034
:10125000fbff2700540a2000028008001300000052
:10126000000000001201c300b10378008b8163000d
:1012700083815500030378001301c1000600cc00f0
:101280001201c3001201c3000400ca000380ca0097
:101290000000cb000a00cc001201c3000600ca0007
:1012a0000380ca000000cb000800cc0006187800bc
:1012b0004400f9002800f9002a00f9002200f90092
:1012c0002400f900000006002400f8002200f800c5
:1012d0002a00f8002800f8004400f8008301e90023
:1012e00066662000a50020000380080011000000b1
:1012f00000000000b1037800120278001201c30060
:101300000700c900050678000580080006000000f7
:1013100000000000480620000864b8006244b800dd
:1013200062027c000c06e9001201c1000a00cc0038
:101330000a1978000a1878004400f9002800f9001a
:101340002a00f9002200f9002400f900000006003c
:101350002400f8002200f8002a00f8002800f80015
:101360004400f8000201e900fbff2700540a2000b6
:10137000028008000d000000000000001201c30000
:10138000b10378008b8163008381550003037800eb
:101390001301c1000600cc001201c3000600ca0000
:1013a0000380ca000000cb000800cc0008187800b9
:1013b0004400f9002800f9002a00f9002200f90091
:1013c0002400f900000006002400f8002200f800c4
:1013d0002a00f8002800f8004400f8000201e900a3
:1013e000fbff2700540a2000028008000d000000c7
:1013f000000000001201c300b10378008b8163007c
:1014000083815500030378001301c1000600cc005e
:101410001201c3000400ca000380ca000000cb0010
:101420000a00cc000a1878004400f9002800f900ee
:101430002a00f9002200f9002400f900000006004b
:101440002400f8002200f8002a00f8002800f80024
:101450004400f8000201e900840278004600200000
:1014600069012000028008000a000000000000005e
:10147000b1037800350278001201c3001301c100e6
:101480000980ca000000cb000280ca000000cb0027
:101490000400cc00071878004400f9002800f90087
:1014a0002a00f9002200f9002400f90000000600db
:1014b0002400f8002200f8002a00f8002800f800b4
:1014c0004400f8008301e90006002600f5ff27002c
:1014d000038008000800000000000000b10378004d
:1014e000120278001201c3000700c9001201c100f6
:1014f0000a00cc00071978000a1878004400f900a7
:101500002800f9002a00f9002200f9002400f9005f
:10151000000006002400f8002200f8002a00f8006d
:101520002800f8004400f8000201e9000600260047
:10153000028008000800000000000000b1037800ed
:10154000130278001201c3000700c9001201c10094
:101550000a00cc008a1978000a1878004400f900c3
:101560002800f9002a00f9002200f9002400f900ff
:10157000000006002400f8002200f8002a00f8000d
:101580002800f8004400f8000201e9000280080089
:101590000700000000000000b101780003f0a60081
:1015a0000300280001003700f3ff2700030578003f
:1015b0000a1878004400f9002800f9002a00f90010
:0c15c0002200f9002400f90000000600e1
:020000040000fa
:1015cc000046000000020000000000000044000083
:1015dc0000020000000000000042000000020000b9
:1015ec0000000000004000000002000000000000ad
:1015fc00000800000014000000000000001c0000a7
:10160c0004000000020000000000000000000000c8
:04161c0000000000ca
:020000040000fa
:101620002400f8002200f8002a00f8002800f80042
:101630004400f8000201e9000280080003000000f5
:1016400000000000b1017800030578000a18780056
:101650004400f9002800f9002a00f9002200f900ee
:101660002400f900000006002400f8002200f80021
:101670002a00f8002800f8004400f800068028003e
:1016800086028800f63f2000360288000000000035
:1016900003002300049220004400f9002800f90010
:1016a0002a00f9002200f9002400f90000000600d9
:020000040000fa
:0200000401f009
:04000c00f8ff0000f9
:020000040000fa
:0200000401f009
:040010007bff000072
:020000040000fa
:0200000401f009
:040014007fff00006a
:00000001FF
