:020000040000fa
:080000000002040000000000f2
:020000040000fa
:10000800d2020000d2020000d2020000d202000098
:10001800d2020000d2020000d2020000d202000088
:10002800d2020000d2020000d2020000d202000078
:10003800d2020000d2020000d2020000d202000068
:020000040000fa
:100400002f0021000eff27000e01880000000000d1
:10041000000020000000e000020032000001200087
:10042000200288000c000700a0c620000100200068
:100430000f000700000020000000e0000200320072
:100440000000020000000000900a0200000000000e
:100450000040da000000fe00c00020000000e000c4
:1004600002003200002020009001880000000600f9
:10047000a1028800800078000000eb001a0037001d
:10048000e280400054a0b4009101ba00e280400034
:1004900054a0b4009102ba00e280400054a0b4001d
:1004a0000002eb00472bde00f507b200a601880032
:1004b000602ce10008003a000049eb000201e8006e
:1004c000020039003420ec0002f0a0008301e900b2
:1004d000f9ff3e00040037006128e100010032000e
:1004e0000082eb00040007001101ba000200e000e6
:1004f000e3ff3a000000060004d0a300e20f490029
:100500001c003900810278003549ba000201e80078
:10051000020039003420ec0002f0a0008301e90061
:100520000f0032002549ba000201e800020039003c
:100530003420ec0002f0a0008301e9000800320042
:100540000400e0000600320015c9ba000201e8000c
:10055000020039003420ec0002f0a0008301e90021
:100560008180e80054a0b4000300e000e2ff3a00fc
:10057000000006009102ba00055978008301e900e5
:10058000f7ff3200c82ade00055978008301e90030
:10059000f3ff32000400e000f1ff320011d9ba008d
:1005a000eeff37000040da000000fe00ea87470057
:1005b000889fbe008a9fbe008c9fbe008e1f780061
:1005c0000004be0002002000037024006d0207003a
:1005d00080067800010678006011b8000800be00af
:1005e000e5010700e00f50003b0035000d007800ea
:1005f0008c00780006020700e10107000003780084
:1006000001077800060078008e00780086bf9f0002
:10061000fc0107000004be000200200003f02300dc
:1006200058020700f0b79f00e1b79f00f8010700ec
:100630000005be000801be000d0078008c037800a4
:1006400000027800870278000400be00f90007006d
:1006500080067800010678000200200003f02300e5
:100660000d0278008c0278000400be00c201070071
:1006700000017800e00f51007f00340002002000ec
:1006800003f823000800be00eb000700bc010700d0
:100690000003780001077800860178000e017800d9
:1006a0000300780082007800f2ff2700820f5000dc
:1006b000e08f580002003400f0ff27000100200006
:1006c0004f0778004f06be004f05be004f04be0026
:1006d000af00b100000006000d0078008c0078002b
:1006e00032010700a6010700f0b79f00010778005c
:1006f0008e007800c30107000004be000d017800e1
:100700008c0178000800be00c901070000017800d4
:10071000e00f51000a0032000200200003f823001d
:100720000800be00c300070095010700f0b79f0056
:10073000010778008e007800b20107000004be00b7
:100740000200200003f023000800be000d02070095
:10075000e0b79f00d1b79f00ad0107000005be00c4
:100760000801be000c03be00070278008602780074
:100770000400be00af000700800678000106780084
:100780000200200003f023000d0278008c027800a4
:100790000400be007801070000017800e00f51005e
:1007a000180034000200200003f823000800be00f7
:1007b000a100070072010700f0b79f000107780051
:1007c000ffb197000e0178000300780082007800e6
:1007d00002002800f3ff2f00820f5000838f580083
:1007e000b7ff3d000200be004f0778004f06be0075
:1007f0004f05be004f04be00af00b1000000060070
:10080000b5ff37000200200003f023000c00be00fb
:1008100001027800800278000400be005401070045
:1008200000067800e00f5600e5ff3a000a01be001e
:10083000efb297005fb2970005007800840078005f
:100840007c0007000001be007b0007004c01070090
:100850008c0f5000daff32000200200003f8230062
:100860000800be007400070045010700f0b79f00b4
:1008700001077800d2ff37000200200003f02300b8
:100880000c00be0001027800800278000400be0067
:1008900037010700000678000fbb9700e00f5600f5
:1008a0007dff3a000a01be00ffb297006fb29700c9
:1008b00005007800840078005e0007000001be009b
:1008c0005d0007002e0107000fbb97008c0f500042
:1008d00071ff32000200200003f823000800be0070
:1008e0005500070026010700000378000107780083
:1008f00069ff3700cf80de004201070002002000c0
:10090000038023009f010700800178000101780027
:100910000300780082007800000006003200f80032
:1009200001c0fe004400f800040f200024028800eb
:10093000010278000000e9000080080004000000c7
:10094000b20278000500ca00b30278000500c900b1
:100950003100cc00040078004400f9003200f900b6
:10096000000006003200f80001c0fe00b10278006d
:100970000009eb000002e90007003400b101780033
:100980000328e10002003c008302780004095000c3
:100990000402e900f9ff3c00050078003200f9008c
:1009a000000006003200f80001c0fe004400f8001c
:1009b000040f200024028800811f78000000e90055
:1009c000030278000080080002000000b2027800f4
:1009d0001301c0003100cd004f0078004400f90041
:1009e0003200f900000006003200f80001c0fe00ed
:1009f0004400f800040f200024028800010278005f
:100a00000000e9000080080005000000b202780044
:100a10000500ca00b30278000580ca000030cb0090
:100a20003100cc00040078004400f9003200f900e5
:100a30000000060003f0a200889fbe008a9fbe004f
:100a40008c1f7800370107003e0133006450e1003d
:100a50004f0032006420e1005200320003826c003b
:100a600007003b000905d0000306d000820f5400a8
:100a70000c065d0002003900020032008901780096
:100a8000030678008582550004003d000003fd0048
:100a90008103fd008502ea008b854200840f72000d
:100aa00002003b0060001000e08018006011b800f8
:100ab0000005eb007a28e1000a0039000600780002
:100ac000c75ddd00f707b200878075002d00370095
:100ad000828171000a017800610560008180d10087
:100ae0000080d3008502e900f9ff3b0006044000c6
:100af0008784480002003b0060041400e0841c006e
:100b00000988a300070032008a8171008281710088
:100b1000610164008904d1000884d3008b05e800da
:100b2000170037000978a30013003a000b00e0001b
:100b3000130034008b05e9000804440089844c004c
:100b40000a4474000978a3000d003a000b00e0008d
:100b5000070034008b05e9000804440089844c0038
:100b600001003a000b0020000978a300f7ff3200d3
:100b70000001eb0002003700828171000a01780059
:100b8000ad0007000cf0a70001f0a000f600370050
:100b90006420e10002003a00838f6c00f60033000d
:100ba0000801be000200be00ef0037000001eb00ac
:100bb00048000700040032000200200003f8230070
:100bc00001f0a6009cff070000000600889fbe0001
:100bd0008a9fbe008c1f7800d2000700d900330026
:100be00003866c006450e1002e0032006420e100b6
:100bf000330032006150e1002f0032006120e1003b
:100c00003100320085855500eb07b0000900200057
:100c100008042000050037000804440089844c00c3
:100c20000a0031000603430087834b000001530094
:100c300081815b00f8ff33000203be000800a000c2
:100c40000804440089844c00f6ff3900c639dd00f1
:100c50008301730001003200130020008904d100d9
:100c60000884d3000998a300050032000800a700fb
:100c70000300a0008904d1000884d3008b05e8009c
:100c80008904d1000884d3000001eb000281d20066
:100c90006900070001f0a1000cf0a70001f0a0001e
:100ca000b10037006420e100b30032000801be004b
:100cb0000200be00f7ff37006120e100ae00320005
:100cc0006000b800f3ff37000000200001f82700a3
:100cd000f0ff3700889fbe008a9fbe000003be0061
:100ce0007b00070085057800828152000200200009
:100cf0006220e10004003a00f307b100040035006f
:100d00007718e100040035000600be00140037002b
:100d10006000b8000f003700f50f2000faff2f0029
:100d20008502d1000a85d3008301e900fcff3b0066
:100d30008184620000046500890f7400f2ff3200b4
:100d40008582ea000a85ea00818462000004650069
:100d50003900070007f0a70001f0a0000081eb00b8
:100d60000200e0004f05be004f04be000000060078
:100d700014002000b7003700f4ff2f00b500370043
:100d80000001be00520007000470a70003f0a1009c
:100d90006509b100160032000d0035006828e10039
:100da00006003500f0ff2f00f1ff27000300e000f0
:100db00013003b0001002800000005000000400077
:100dc000818048008502e900fcff3a0008003700f6
:100dd000f88f420002003c008000eb00000005009c
:100de0008100d1000080d3008502e800fcff3a00ba
:100df0000300e00002003b0060001000e0801800eb
:100e0000000006004f89de0082017800ac00370048
:100e10000001eb00afff07000400320002002000d9
:100e200003f8230001f0a70002ff070000000600fe
:100e300004002000870037008100200061805500f9
:100e40000b003d000b00200061fe2f000100e100bf
:100e50001d00340082817100610164008904d100a9
:100e60000884d3000000e800faff3a007100200077
:100e7000610064000300700002006000090032009d
:100e800061044400e0844c000988a500050032009c
:100e90008b05e8006808e10002003a008904d100ef
:100ea0000884d300f20f20000258e10005003d0045
:100eb000c75ddd00f907b200898075000800780081
:100ec000000006000bf827008b00780000000500ea
:100ed000c70ade00f107b200f50fb20008003200c9
:100ee000e1cf4200020032000170a00024000500a2
:100ef000810f700001003200040805004400050065
:100f0000810f700002003a00140005008502e9001c
:100f10000000400081c04800fcff3b000170a000c1
:100f2000240005000004be00e9ff07000003be0026
:100f30000405be000200be00e5ff0700844f7500f7
:100f4000000006000200be006450e100050036000b
:100f50006420e100020036000968a30001003a00a5
:100f60000800be000160a0004f0678004f05be00db
:100f70004f04be0000000600f0ff2f00f1ff270025
:100f8000f9ff3700889fbe008a9fbe008c1f780043
:100f9000e4ff0700ebff330003866c006450e100c0
:100fa000240032006420e100270032006150e1009b
:100fb000220032006120e100210032008b854200d6
:100fc000eb07b1000134b800003ab8000804420051
:100fd00089844a00013ab8000030b8008880400097
:100fe00009014a00040033000000400081804800ed
:100ff000020149008b05e900c909dd008301700089
:101000000100320013002000c814de004814dd0087
:101010004709de001200b200c808de000884700034
:1010200085ff070001f0a1000cf0a70001f0a0006f
:10103000cdff37006120e100cfff32000801be0084
:101040000200be00f7ff37006150e100fcff3a00ec
:10105000c9ff3700889fbe008a9fbe00841f7800aa
:10106000b0ff07004f00780011003300f0ff2f00a1
:10107000838f6c0006003b00040565000a00a70092
:101080000800370009f0a600100020000800370013
:10109000820f5400838f5c00030039001000200091
:1010a00001003e000000200009f0a7000000ea0057
:1010b0004f05be004f04be000000e0000000060027
:1010c000881f7800030478000300e00007003d005b
:1010d00060001000e080180060011900e081190034
:1010e00002003b0001f02d00030037000400070060
:1010f00008f0a70001f0a0004f04780000000600ef
:10110000889fbe008a9fbe000082700004027100aa
:1011100004827100260032000004be000200be00fe
:101120006011b8006b092000950220000182cf00f9
:101130000a0039000541b1000082cf0007003900e4
:101140000541b1000982cf00040039000541b1001a
:101150000882cf00010039000541b100054252006c
:10116000120032000a003b008281710061016400bc
:101170008100d1000080d3008984d3000884d3008b
:101180008b05e8000442e800f7ff3a00070037004b
:101190000804440089844c00000048008180480015
:1011a0008b05e9000442e900f9ff3a0022ff07003d
:0c11b0004f05be004f04be00000006000a
:020000040000fa
:1011bc00ff7f000000400000aa2a00000020000071
:0811cc009919000055150000ff
:020000040000fa
:1011d4000200fa00000f78000080fa000000060008
:1011e4001238fa00e28023000037790000812300de
:1011f40001377800008123006e0078004b00dd0089
:10120400ee004700008f4000030024001e01780018
:101214009e00780000402000e1fd0700e1802300eb
:10122400e0802300030024006e817800ee00780043
:1012340000402000dafd0700e0802300ee00780083
:10124400004020006c010700100798001e00900069
:101254000000e00003003d000070ef0000d0bf007c
:1012640051003700e1802300e080220000004700a5
:101274009e0178006e817800800078000040200094
:10128400d8fd0700e08022000000470080007800bd
:101294000040200058010700100798001e0090002d
:1012a4000000e00037003400e1802300e000230068
:1012b400000047009e0178006e817800800078006d
:1012c4000040200094fd0700e000230000004700d8
:1012d40080007800004020004701070020079800a4
:1012e400e080220080004700e080220000004700e8
:1012f40001017800800078000040200060010700b0
:10130400e0802200000047008000780000402000b8
:1013140039010700100798001e00900074fd0700b3
:1013240030079800410798002e00900070fd0700d8
:1013340050079800610798005e019000ee0190004c
:101344003e009000ce0090001ffe0700300798007a
:10135400410798003e009000ce00900092fc0700e8
:10136400100798009e00900000002400808f500019
:101374000400340020c0b30000f0b70000d0bf0068
:101384000900370000d0bf000004e000040034006e
:1013940010c0b30000f0b70000d0bf000200370057
:1013a4000070ef0000d0bf000080fa0000000600cb
:1013b4001604fa004141200000b778000000eb0059
:1013c4003007980080002000000f78006600470076
:1013d4004141200000017800ee80780000402000a8
:1013e4005ffd0700be00900068004700e28d280002
:1013f400bf00070040412000010021006e0078007a
:10140400f0000700100798004141200074004700d5
:101414001e019000ee807800d1000700200798009c
:10142400e80047007400470004000700000f78003c
:101434001e0078000080fa00000006000a00fa008e
:1014440030079800410798000000eb00000f780077
:101454002b0037001e00780000004000be00900002
:101464000080400090007800210798002e00900032
:10147400e20f5000210034000000eb001007980038
:101484001b0037002e0090008000e8001e00900032
:10149400000040004e019000000041001000780060
:1014a400808f50000f0034002e0090008000e9006f
:1014b4001e009000000040004e019000000041001a
:1014c40010007800808f500006003d001e00900040
:1014d40000004000ce009000008040001000780022
:1014e4000c0037001e0090000000e8001007980070
:1014f4001e009000e50f5000e2ff34001e0fe800cc
:10150400f01f20009e007800808f5000d1ff34002f
:101514000000eb000080fa00000006000430fa002e
:101524000000eb00000f78000040eb00204798001b
:1015340090022000303a8800203a80000060a10028
:101544000070a100203a8800213a800000fe2f009c
:1015540000806000203a88004827ef004400a9007a
:1015640040a7a9001200200080072000a109200044
:1015740033742000804978008149780082497800da
:101584001200200060042000710520002374200054
:101594008049780081497800824978000000000081
:1015a400113a8000000027008080600000002100c4
:1015b400808f5000faff3a0000000000113a8000ca
:1015c40000022000008060000000e000fbff320009
:1015d400b60007000000eb00000f7800060037009b
:1015e4001e00780000004000640040008000eb0012
:1015f400013778001e0fe800f03f20009e007800bd
:10160400808f5000f6ff340000002400300798005b
:1016140000002400400798000000240050079800b0
:101624000000240060079800000024007007980060
:1016340000002400000f980000002400100f980000
:1016440000002400200f980000002400300f9800b0
:1016540000002400400f980000002400500f980060
:1016640000002400600f980000002400700f980010
:1016740000002400001798000000240010179800b0
:101684000000240020179800000024003017980060
:101694000000240040179800000024005017980010
:1016a40000002400601798000000eb00000f780091
:1016b40001003700000000001e0078004b00dd0030
:1016c400e4004700008040009e007800c4fe07004c
:1016d400304798001e0fe8001e007800e90f500004
:1016e400f4ff34000000eb000080fa000000060064
:1016f4002400f8002200f8004400f80001187800e3
:10170400010278000400080002000000d202780000
:101714001301c0003000cc004400f9002200f9009d
:101724002400f900000006004400f8001300200023
:1017340000027800f7ff2700071a7800170020003e
:1017440004000800030000008703e80011000900fa
:101754000718d900001a78004400f90000000600b8
:101764004400f800030020000400200091027800e7
:10177400fe0008000f0000008301e8005103780018
:10178400020453004260af000a0037008183e8007e
:1017940097037800070453004260af000500370048
:1017a400050453004260af000200370003187800bc
:1017b4000402e80086027800040078004400f9007e
:1017c400000006002400f8002200f8001201c30003
:1017d400ff0009003000c9008403cc004122de0070
:1017e400810278001301c0000000cc002200f9003f
:1017f4002400f900000006002400f8002200f8008c
:101804001201c3000000e900008009003100c90092
:101814000000cc002200f9002400f90000000600ba
:101824002400f8002200f8002a00f8002800f8003c
:101834004400f8008001780001027800f5ff2f00d1
:101844001201c3001281c300ff000800040000005d
:101854009383c9009483c900b303c90034abb900ae
:101864008603c9000000cc004400f9002800f900f8
:101874002a00f9002200f9002400f9000000060003
:101884004400f8000000e900f3ff2f000080080086
:1018940003000000b200780002f0a7008300690092
:1018a4008180e8004400f900000006000000fa000e
:1018b4000a21ef00f0372000700888000108a90011
:1018c4002108a90013e1a8000080fa000000060026
:020000040000fa
:1018d4000010000002000000800000000000000072
:020000040000fa
:0200000401f009
:04000c00f8ff0000f9
:020000040000fa
:0200000401f009
:040010007bff000072
:020000040000fa
:0200000401f009
:040014007fff00006a
:00000001FF
