:020000040000fa
:080000000002040000000000f2
:020000040000fa
:100008009a0200009a0200009a0200009a02000078
:100018009a0200009a0200009a0200009a02000068
:100028009a0200009a0200009a0200009a02000058
:100038009a0200009a0200009a0200009a02000048
:020000040000fa
:020000040000fa
:100400000f8020000e7f27000e01880000000000f2
:10041000000020000000e000020032000001200087
:10042000200288000c000700403620000100200058
:1004300011000700000020000000e0000200320070
:100440000000020000000000b802020000000000ee
:100450000040da000000fe004440a9000000200037
:100460000000e0000300320000002000a00188002e
:100470004440a80000000600910188008000780038
:100480000000eb0015003700e280400032a0b4000d
:100490009101ba00e280400032a0b4009102ba009b
:1004a000e280400032a0b4000002eb00472bde00e7
:1004b000f507b200602ce10004003a000059eb009f
:1004c0008301e900fdff3e00040037006128e100e0
:1004d000010032000082eb00040007001101ba00a5
:1004e0000200e000e8ff3a00000006003159ba00bf
:1004f0008301e9000c0032002159ba008301e900b0
:10050000080032000400e00003003a00e2804000ee
:1005100032a0b400f5ff370011d9ba008301e90019
:10052000faff3a008100e800e180400032a0b40008
:10053000000006000040da000000fe00b102780072
:100540000009eb000002e90007003400b101780067
:100550000328e10002003c008302780004095000f7
:100560000402e900f9ff3c000500780000000600e5
:020000040000fa
:100570000202fa0094022000343a8800243a8000f3
:100580000460a1000470a100243a8800253a80008c
:1005900004fe2f0004826200243a88000002eb006f
:1005a000443a880040a7a9001600200084072000d4
:1005b000a509200037742000844b7800854b780013
:1005c000864b78001600200064042000750520008a
:1005d00027742000844b7800854b7800864b780088
:1005e00000000000153a80000400270084826200a9
:1005f00004002100848f5200faff3a00000000003e
:10060000153a80000402200004826200e00f5200cc
:10061000fbff32003900070014002000040f7800af
:10062000240020001407980084002000240798006c
:10063000340020003407980044002000440798004c
:100640000002eb0004079a00042020000e02420082
:10065000040178008e00780000102000b7ff07002a
:10066000f9ff37000000fa000002eb0004138800d5
:1006700014162000141388006382a9006362a90085
:100680006342a8006322a8006302a80062e2a900f6
:1006900062c2a90062a2a800141380000400a00096
:1006a0000410a10014138800141380000420a0007b
:1006b0000430a1000440a1001413880061e2a800e6
:0806c0000080fa0000000600b2
:020000040000fa
:1006c800007e00000002000000000000007c000026
:1006d8000002000000000000007a00000002000094
:1006e8000000000000780000000200000000000088
:0406f80000000000fe
:020000040000fa
:1006fc000000fa000002eb0054088800f4372000d8
:10070c00740888008500a9009500a90013e1a800d1
:08071c000080fa000000060055
:020000040000fa
:0200000401f009
:04000c00f8ff0000f9
:020000040000fa
:0200000401f009
:040010007bff000072
:020000040000fa
:0200000401f009
:040014007fff00006a
:00000001FF
