:020000040000fa
:080000000002040000000000f2
:020000040000fa
:1000080090020000900200009002000090020000a0
:100018009002000090020000900200009002000090
:100028009002000090020000900200009002000080
:1000380054030000900200009002000090020000ab
:100048009002000090020000900200009002000060
:1000580090020000900200009e0300009002000041
:100068009002000090020000900200009002000040
:100078009002000090020000900200009002000030
:100088009002000090020000900200009002000020
:100098009002000090020000900200009002000010
:1000a8009002000090020000900200009002000000
:1000b80090020000900200009002000090020000f0
:1000c80090020000900200009002000090020000e0
:1000d80090020000900200009002000090020000d0
:1000e80090020000900200009002000090020000c0
:1000f80090020000900200009002000090020000b0
:10010800900200009002000090020000900200009f
:10011800900200009002000090020000900200008f
:10012800900200009002000090020000900200007f
:10013800900200009002000090020000900200006f
:10014800900200009002000090020000900200005f
:10015800900200009002000090020000900200004f
:10016800900200009002000090020000900200003f
:10017800900200009002000090020000900200002f
:10018800900200009002000090020000900200001f
:10019800900200009002000090020000900200000f
:1001a80090020000900200009002000090020000ff
:1001b80090020000900200009002000090020000ef
:1001c80090020000900200009002000090020000df
:1001d80090020000900200009002000090020000cf
:1001e80090020000900200009002000090020000bf
:0801f8009002000090020000db
:020000040000fa
:10020800900200009002000090020000900200009e
:10021800900200009002000090020000900200008e
:10022800900200009002000090020000900200007e
:1002380054030000900200009002000090020000a9
:10024800900200009002000090020000900200005e
:1002580090020000900200009e030000900200003f
:10026800900200009002000090020000900200003e
:10027800900200009002000090020000900200002e
:10028800900200009002000090020000900200001e
:10029800900200009002000090020000900200000e
:1002a80090020000900200009002000090020000fe
:1002b80090020000900200009002000090020000ee
:1002c80090020000900200009002000090020000de
:1002d80090020000900200009002000090020000ce
:1002e80090020000900200009002000090020000be
:1002f80090020000900200009002000090020000ae
:10030800900200009002000090020000900200009d
:10031800900200009002000090020000900200008d
:10032800900200009002000090020000900200007d
:10033800900200009002000090020000900200006d
:10034800900200009002000090020000900200005d
:10035800900200009002000090020000900200004d
:10036800900200009002000090020000900200003d
:10037800900200009002000090020000900200002d
:10038800900200009002000090020000900200001d
:10039800900200009002000090020000900200000d
:1003a80090020000900200009002000090020000fd
:1003b80090020000900200009002000090020000ed
:1003c80090020000900200009002000090020000dd
:1003d80090020000900200009002000090020000cd
:1003e80090020000900200009002000090020000bd
:0803f8009002000090020000d9
:020000040000fa
:100400004fc021000eff23000e01880000000000f5
:100410000c000700c071200001002000110007003f
:10042000000020000000e000020032000000020096
:1004300000000000a6030200000000000040da00f7
:100440000000fe004440a900000020000000e00081
:100450000300320000002000a00188004440a800f2
:100460000000060091018800800078000000eb0089
:1004700015003700e280400032a0b4009101ba00bc
:10048000e280400032a0b4009102ba00e280400055
:1004900032a0b4000002eb00472bde00f507b200eb
:1004a000602ce10004003a000059eb008301e900f0
:1004b000fdff3e00040037006128e100010032002a
:1004c0000082eb00040007001101ba000200e00006
:1004d000e8ff3a00000006003159ba008301e90044
:1004e0000c0032002159ba008301e90008003200f3
:1004f0000400e00003003a00e280400032a0b400b3
:10050000f5ff370011d9ba008301e900faff3a007c
:100510008100e800e180400032a0b4000000060045
:080520000040da000000fe00bb
:020000040000fa
:100528000000fa00011980000030200000807000ef
:100538000019880001198000f0f12f008080600008
:100548000004200000807000001988002043a800e3
:100558002143a80011198000f0cf2f00008060000f
:100568001019880025e3a90030c0b30024e3b700c0
:100578002183a8001119800030fc2f000080600042
:10058800101988004119800000fe2f0000806000cb
:100598004019880028e3a9000080eb006019880052
:1005a8002c03a90085a0a90095a0a90021e3a80013
:1005b8000080fa00000006000000fa004ba7a9001e
:1005c800513a8000f07f2e0000806000503a880089
:1005d8004ae7a900513a80000070200000807000ae
:1005e800503a8800f3e3a800f343a800f183a90078
:1005f800811f800000f82f0000806000d000b30049
:10060800801f8800f103a800f1e3a8000080fa0029
:10061800000006000000fa000000eb005008880007
:10062800f0372000700888008500a9009500a9000f
:1006380013e1a8000080fa00000006000000fa009c
:10064800011c8000f0fc2f0000806000001c880066
:10065800011c8000c0ff2f00008060000010a00077
:10066800001c880000302000401c8800f00f20008b
:10067800501c8800d0002000101c8800006020005a
:10068800201c880000402000301c88008480a900bd
:100698009480a80081e3a8000080fa00000006000a
:1006a800801f78000000fa0000e080000000a2002f
:1006b80000e088001000200010e088008480a90075
:1006c8000080fa004f007800004006000000fa00a1
:1006d800611c8000f0fc2f0000806000601c880016
:1006e800611c8000c0ff2f00008060000010a00087
:1006f800601c88008da3a800803f2000a01c8800f3
:10070800f00f2000b01c8800f0042000701c880046
:1007180000202000801c880000002000901c880019
:1007280085c0a90095c0a8008de3a8000080fa0044
:10073800000006000000fa0085c0a9000080fa0049
:10074800004006001400fa0090022000303a8800a9
:10075800213a8000f0f32f0000806000203a8800e2
:10076800213a800000fe2f0000806000203a8800b7
:100778000000eb00403a880040a7a90012002000c2
:1007880080072000a10920003374200080497800e8
:100798008149780082497800120020006004200016
:1007a8007105200023742000804978008149780071
:1007b8008249780000000000113a800000002700fc
:1007c8008080600000002100808f5000faff3a000e
:1007d80000000000113a8000000220000080600044
:1007e800e00f5000fbff32004dff070093ff0700aa
:1007f800b6ff070070ff070086ff07000000230010
:10080800000f780010002000100798000080eb000f
:1008180020079800f0ff2700300798000000280004
:100828004007980010002f0050079800f0ff2300a1
:100838006007980000002400700798001000290045
:10084800000f980010002800100f98008d01070075
:10085800010037000000000010e08000e00f5000a9
:10086800fcff320000e08000e10f500005003a0074
:100878000210200001602400002024002601070047
:10088800040037000210200001402400000024006a
:10089800210107000000eb0010e08800eeff3700a0
:1008a8002400f8002200f8002a00f8002800f800c8
:1008b8004400f8000201e900f6ff240005002800c2
:1008c800068572000a855200050020001281c300c7
:1008d8000680ca0002800800230000000000000013
:1008e800b1037800070278001201c3000700ca00ac
:1008f8000030cb0043a0ae000100370010003700e5
:100908000b00cc00858545004260af000100370030
:10091800100037001201c3000700ca000000cb0016
:1009280043a0af00100037000b00cc0085854500c0
:100938004260ae000c0037008a0378000a003700d6
:100948004340a900868443004260ae000600370099
:100958008a0378001201c300860378008485420068
:100968004260af008a037800071878004400f90055
:100978002800f9002a00f9002200f9002400f900f3
:10098800000006002400f8002200f8002a00f80001
:100998002800f8004400f8000201e900fbff2700e6
:1009a800540a200002800800250000000000000012
:1009b8001201c300b10378008b8163008381550065
:1009c800030378001301c1000600cc001201c30024
:1009d8001201c3000400ca000380ca000000cb0053
:1009e8000a00cc001201c3000600ca000380ca0036
:1009f8000000cb000800cc0080017800810478005a
:100a08000a0254004220ae0001003700610454007d
:100a1800110009000a40d90000037800030078009b
:100a28008900780004002000870342004260ae007d
:100a38000300370005002800068572000a8352006b
:100a4800061878004400f9002800f9002a00f90087
:100a58002200f9002400f900000006002400f80034
:100a68002200f8002a00f8002800f8004400f800e6
:100a78000201e900fbff270005002800540a2000b6
:100a88000280080023000000000000001201c300db
:100a9800b101780003f0a600010037000300200030
:100aa8008b8351004220af001a0037008583510024
:100ab8004220af0017003700030378001301c1007c
:100ac8000600cc001201c3008b83610087835200ab
:100ad8001201c3000400ca000780ca000000cb004e
:100ae8000a00cc001201c3000600ca000380ca0035
:100af8000000cb000800cc00800178008104780059
:100b0800110009000a40d9000003780003007800aa
:100b180089007800061878004400f9002800f900d8
:100b28002a00f9002200f9002400f900000006005c
:100b38002400f8002200f8002a00f8002800f80035
:100b48004400f8000201e90006002000050020002a
:100b58001281c3000680ca00028008001f0000003e
:100b680000000000b10378001201c3000700ca00aa
:100b78000030cb0043a0ae00010037001200370060
:100b88000b00cc00858545004260ae00130037009d
:100b98001201c3000700ca000000cb0043a0ae004a
:100ba800030037004340a900850378000b00370095
:100bb8000b00cc00858545004260af000700370078
:100bc80085037800050037004340a9008684430068
:100bd8004260af00010037008503780007187800ed
:100be8004400f9002800f9002a00f9002200f90061
:100bf8002400f900000006002400f8002200f80094
:100c08002a00f8002800f8004400f8000201e90072
:100c180006002700050020001281c3000680ca00d4
:100c2800028008001c000000000000004340a900ea
:100c3800b10378001201c3000700ca000030cb00de
:100c480043a0af00140037000b00cc008585450099
:100c58004260af00100037001201c3000700ca004d
:100c68000000cb0043a0af000b0037000b00cc0006
:100c7800858545004260af0007003700850378008e
:100c8800050037004340a900868443004260af0056
:100c98000100370085037800071878004400f90040
:100ca8002800f9002a00f9002200f9002400f900c0
:100cb800000006002400f8002200f8002a00f800ce
:100cc8002800f8004400f8008301e9000600260027
:100cd800f5ff27000380080008000000000000005e
:100ce800b1037800120278001201c3000700c9009e
:100cf8001201c1000a00cc00071978000a18780010
:100d08004400f9002800f9002a00f9002200f9003f
:100d18002400f900000006002400f8002200f80072
:100d28002a00f8002800f8004400f8000201e90051
:100d380006002600028008000800000000000000ed
:100d4800b1037800190278001201c3000700c90036
:100d58001201c1000a00cc008a1c78000a18780029
:100d68004400f9002800f9002a00f9002200f900df
:100d78002400f900000006002400f8002200f80012
:100d88002a00f8002800f8004400f8000201e900f1
:100d9800060026000280080008000000000000008d
:100da800b1037800190278001201c3000700c900d6
:100db8001201c1000a00cc008a1c78000a187800c9
:100dc8004400f9002800f9002a00f9002200f9007f
:100dd8002400f900000006002400f8002200f800b2
:100de8002a00f8002800f8004400f8000201e90091
:100df800028008000700000000000000b101780030
:100e080003f0a6000300280001003700f3ff2700c5
:100e1800030578000a1878004400f9002800f90052
:100e28002a00f9002200f9002400f9000000060059
:020000040000fa
:100e3800004600000002000000000000004400001e
:100e48000002000000000000004200000002000054
:100e58000000000000400000000200000000000048
:100e6800000800000014000000000000001c000042
:100e78000400000002000000000000000000000064
:040e88000000000066
:020000040000fa
:100e8c002400f8002200f8002a00f8002800f800de
:100e9c004400f8000690200046028800e69f2100de
:100eac005602880096ff28003602880000000000d9
:100ebc00090023004400f9002800f9002a00f90079
:100ecc002200f9002400f900000006002400f800bc
:100edc002200f8002a00f8002800f8004400f8006e
:100eec000201e9000280080003000000000000007d
:100efc00b1017800030578000a1878004400f90065
:100f0c002800f9002a00f9002200f9002400f90059
:100f1c00000006002400f8002200f8002a00f80067
:100f2c002800f8004400f8008100e90006002600c3
:100f3c00018008000200000000000000300578006d
:100f4c008a1c78004400f9002800f9002a00f900f6
:100f5c002200f9002400f900000006002400f8002b
:100f6c002200f8002a00f8002800f8004400f800dd
:100f7c000680280086028800f69f20003602880032
:100f8c0000000000090023004400f9002800f900cb
:100f9c002a00f9002200f9002400f90000000600e4
:100fac000000fa000000eb0000138800101620006f
:100fbc00101388006302a80062c2a9000000280078
:0c0fcc00001388000080fa0000000600fe
:020000040000fa
:0200000401f009
:04000c00f8ff0000f9
:020000040000fa
:0200000401f009
:040010007bff000072
:020000040000fa
:0200000401f009
:040014007fff00006a
:00000001FF
